{
  "contractName": "OrderWholesaler",
  "abi": [
    {
      "constant": true,
      "inputs": [
        {
          "name": "",
          "type": "uint256"
        }
      ],
      "name": "orderMap",
      "outputs": [
        {
          "name": "orderId",
          "type": "uint256"
        },
        {
          "name": "medId",
          "type": "uint256"
        },
        {
          "name": "count",
          "type": "uint256"
        },
        {
          "name": "manId",
          "type": "uint256"
        },
        {
          "name": "status",
          "type": "uint256"
        }
      ],
      "payable": false,
      "stateMutability": "view",
      "type": "function",
      "signature": "0x1cf3cd07"
    },
    {
      "constant": true,
      "inputs": [],
      "name": "obj",
      "outputs": [
        {
          "name": "orderId",
          "type": "uint256"
        },
        {
          "name": "medId",
          "type": "uint256"
        },
        {
          "name": "count",
          "type": "uint256"
        },
        {
          "name": "manId",
          "type": "uint256"
        },
        {
          "name": "status",
          "type": "uint256"
        }
      ],
      "payable": false,
      "stateMutability": "view",
      "type": "function",
      "signature": "0xe31f2d6e"
    },
    {
      "constant": false,
      "inputs": [
        {
          "name": "manId",
          "type": "uint256"
        }
      ],
      "name": "startOrder",
      "outputs": [],
      "payable": false,
      "stateMutability": "nonpayable",
      "type": "function",
      "signature": "0x7d41fdd9"
    },
    {
      "constant": false,
      "inputs": [
        {
          "name": "manId",
          "type": "uint256"
        }
      ],
      "name": "placeOrder",
      "outputs": [],
      "payable": false,
      "stateMutability": "nonpayable",
      "type": "function",
      "signature": "0xba2255f4"
    },
    {
      "constant": false,
      "inputs": [
        {
          "name": "medId",
          "type": "uint256"
        },
        {
          "name": "count",
          "type": "uint256"
        },
        {
          "name": "manId",
          "type": "uint256"
        }
      ],
      "name": "addMedToOrder",
      "outputs": [],
      "payable": false,
      "stateMutability": "nonpayable",
      "type": "function",
      "signature": "0x1ca6615b"
    },
    {
      "constant": false,
      "inputs": [
        {
          "name": "orderId",
          "type": "uint256"
        }
      ],
      "name": "acceptOrder",
      "outputs": [],
      "payable": false,
      "stateMutability": "nonpayable",
      "type": "function",
      "signature": "0xef18e9ed"
    },
    {
      "constant": false,
      "inputs": [
        {
          "name": "orderId",
          "type": "uint256"
        }
      ],
      "name": "rejectOrder",
      "outputs": [],
      "payable": false,
      "stateMutability": "nonpayable",
      "type": "function",
      "signature": "0x24f63894"
    }
  ],
  "bytecode": "0x608060405234801561001057600080fd5b50610510806100206000396000f3fe608060405260043610610083576000357c0100000000000000000000000000000000000000000000000000000000900463ffffffff1680631ca6615b146100885780631cf3cd07146100d757806324f63894146101425780637d41fdd91461017d578063ba2255f4146101b8578063e31f2d6e146101f3578063ef18e9ed1461023a575b600080fd5b34801561009457600080fd5b506100d5600480360360608110156100ab57600080fd5b81019080803590602001909291908035906020019092919080359060200190929190505050610275565b005b3480156100e357600080fd5b50610110600480360360208110156100fa57600080fd5b8101908080359060200190929190505050610339565b604051808681526020018581526020018481526020018381526020018281526020019550505050505060405180910390f35b34801561014e57600080fd5b5061017b6004803603602081101561016557600080fd5b810190808035906020019092919050505061036f565b005b34801561018957600080fd5b506101b6600480360360208110156101a057600080fd5b81019080803590602001909291905050506103dc565b005b3480156101c457600080fd5b506101f1600480360360208110156101db57600080fd5b81019080803590602001909291905050506103ef565b005b3480156101ff57600080fd5b50610208610453565b604051808681526020018581526020018481526020018381526020018281526020019550505050505060405180910390f35b34801561024657600080fd5b506102736004803603602081101561025d57600080fd5b8101908080359060200190929190505050610477565b005b6000600154905060a06040519081016040528082815260200185815260200184815260200183815260200160008152506004600082015181600001556020820151816001015560408201518160020155606082015181600301556080820151816004015590505060046003600080600081546001019190508190558152602001908152602001600020600082015481600001556001820154816001015560028201548160020155600382015481600301556004820154816004015590505050505050565b60036020528060005260406000206000915090508060000154908060010154908060020154908060030154908060040154905085565b600154811115151561038057600080fd5b60008090505b6000548110156103d85781600360008381526020019081526020016000206000015414156103cb57600260036000838152602001908152602001600020600401819055505b8080600101915050610386565b5050565b6001600081546001019190508190555050565b8060046003018190555060046003600080600081546001019190508190558152602001908152602001600020600082015481600001556001820154816001015560028201548160020155600382015481600301556004820154816004015590505050565b60048060000154908060010154908060020154908060030154908060040154905085565b600154811115151561048857600080fd5b60008090505b6000548110156104e05781600360008381526020019081526020016000206000015414156104d357600160036000838152602001908152602001600020600401819055505b808060010191505061048e565b505056fea165627a7a72305820b746b61da22b0734ba04c125f4ef75bd6a94f1fbfeb3858ba643feb373e263e80029",
  "source": "pragma solidity ^0.5.0;\r\n\r\ncontract OrderWholesaler{\r\n\t\r\n\t// enum status{\r\n\t// \tpending,\r\n\t// \taccepted,\r\n\t// \trejected\r\n\t// }\r\n\r\n\tuint orderCount;\r\n\tuint distinctOrders;\r\n\tuint defManId;\r\n\r\n\t//struct of order placed by wholesaler\r\n\tstruct Order{\r\n\t\tuint orderId;\r\n\t\tuint medId;\r\n\t\tuint count;\r\n\t\tuint manId;\r\n\t\tuint status;\r\n\t}\r\n\r\n\tmapping(uint=>Order) public orderMap;\r\n\tOrder public obj;\r\n\r\n\t//initialize order object\r\n\tfunction startOrder(uint manId) public {\r\n\t\t++distinctOrders;\r\n\t}\r\n\r\n\t//complete and place order\r\n\tfunction placeOrder(uint manId) public{\r\n\t\tobj.manId = manId;\r\n\t\torderMap[++orderCount] = obj;\r\n\t}\r\n\r\n\t//append medicines to list\r\n\tfunction addMedToOrder(uint medId, uint count,uint manId) public {\r\n\t\tuint orderId = distinctOrders;\r\n\t\tobj = Order(orderId,medId,count,manId,0);\r\n\t\torderMap[++orderCount] = obj;\r\n\t}\r\n\r\n\tfunction acceptOrder(uint orderId) public{\r\n\t\trequire(orderId<=distinctOrders);\r\n\t\tfor(uint i=0;i<orderCount;i++){\r\n\t\t\tif(orderMap[i].orderId == orderId){\r\n\t\t\t\torderMap[i].status = uint(1);\r\n\t\t\t}\r\n\t\t}\r\n\t}\r\n\r\n\tfunction rejectOrder(uint orderId) public{\r\n\t\trequire(orderId<=distinctOrders);\r\n\t\tfor(uint i=0;i<orderCount;i++){\r\n\t\t\tif(orderMap[i].orderId == orderId){\r\n\t\t\t\torderMap[i].status = uint(2);\r\n\t\t\t}\r\n\t\t}\r\n\t}\r\n\r\n}",
  "sourcePath": "C:/MedChain/contracts/OrderWholesaler.sol",
  "compiler": {
    "name": "solc",
    "version": "0.5.0+commit.1d4f565a.Emscripten.clang"
  },
  "schemaVersion": "3.0.6",
  "updatedAt": "2019-03-30T16:28:54.614Z",
  "devdoc": {
    "methods": {}
  },
  "userdoc": {
    "methods": {}
  }
}