{
  "contractName": "OrderWholesaler",
  "abi": [
    {
      "constant": true,
      "inputs": [
        {
          "name": "",
          "type": "uint256"
        }
      ],
      "name": "orderMap",
      "outputs": [
        {
          "name": "orderId",
          "type": "uint256"
        },
        {
          "name": "medId",
          "type": "uint256"
        },
        {
          "name": "count",
          "type": "uint256"
        },
        {
          "name": "uid",
          "type": "uint256"
        },
        {
          "name": "manId",
          "type": "uint256"
        },
        {
          "name": "status",
          "type": "uint256"
        }
      ],
      "payable": false,
      "stateMutability": "view",
      "type": "function",
      "signature": "0x1cf3cd07"
    },
    {
      "constant": true,
      "inputs": [],
      "name": "orderCount",
      "outputs": [
        {
          "name": "",
          "type": "uint256"
        }
      ],
      "payable": false,
      "stateMutability": "view",
      "type": "function",
      "signature": "0x2453ffa8"
    },
    {
      "constant": true,
      "inputs": [],
      "name": "distinctOrders",
      "outputs": [
        {
          "name": "",
          "type": "uint256"
        }
      ],
      "payable": false,
      "stateMutability": "view",
      "type": "function",
      "signature": "0x4a8dd507"
    },
    {
      "constant": true,
      "inputs": [],
      "name": "obj",
      "outputs": [
        {
          "name": "orderId",
          "type": "uint256"
        },
        {
          "name": "medId",
          "type": "uint256"
        },
        {
          "name": "count",
          "type": "uint256"
        },
        {
          "name": "uid",
          "type": "uint256"
        },
        {
          "name": "manId",
          "type": "uint256"
        },
        {
          "name": "status",
          "type": "uint256"
        }
      ],
      "payable": false,
      "stateMutability": "view",
      "type": "function",
      "signature": "0xe31f2d6e"
    },
    {
      "inputs": [],
      "payable": false,
      "stateMutability": "nonpayable",
      "type": "constructor",
      "signature": "constructor"
    },
    {
      "constant": false,
      "inputs": [
        {
          "name": "manId",
          "type": "uint256"
        }
      ],
      "name": "startOrder",
      "outputs": [],
      "payable": false,
      "stateMutability": "nonpayable",
      "type": "function",
      "signature": "0x7d41fdd9"
    },
    {
      "constant": false,
      "inputs": [
        {
          "name": "manId",
          "type": "uint256"
        }
      ],
      "name": "placeOrder",
      "outputs": [],
      "payable": false,
      "stateMutability": "nonpayable",
      "type": "function",
      "signature": "0xba2255f4"
    },
    {
      "constant": false,
      "inputs": [
        {
          "name": "medId",
          "type": "uint256"
        },
        {
          "name": "count",
          "type": "uint256"
        },
        {
          "name": "manId",
          "type": "uint256"
        }
      ],
      "name": "addMedToOrder",
      "outputs": [],
      "payable": false,
      "stateMutability": "nonpayable",
      "type": "function",
      "signature": "0x1ca6615b"
    },
    {
      "constant": false,
      "inputs": [
        {
          "name": "orderId",
          "type": "uint256"
        }
      ],
      "name": "acceptOrder",
      "outputs": [],
      "payable": false,
      "stateMutability": "nonpayable",
      "type": "function",
      "signature": "0xef18e9ed"
    },
    {
      "constant": false,
      "inputs": [
        {
          "name": "orderId",
          "type": "uint256"
        }
      ],
      "name": "rejectOrder",
      "outputs": [],
      "payable": false,
      "stateMutability": "nonpayable",
      "type": "function",
      "signature": "0x24f63894"
    }
  ],
  "bytecode": "0x608060405234801561001057600080fd5b50610019610175565b604051809103906000f080158015610035573d6000803e3d6000fd5b506000806101000a81548173ffffffffffffffffffffffffffffffffffffffff021916908373ffffffffffffffffffffffffffffffffffffffff1602179055506000809054906101000a900473ffffffffffffffffffffffffffffffffffffffff1673ffffffffffffffffffffffffffffffffffffffff16632bcc23f8336040518263ffffffff167c0100000000000000000000000000000000000000000000000000000000028152600401808273ffffffffffffffffffffffffffffffffffffffff1673ffffffffffffffffffffffffffffffffffffffff16815260200191505060206040518083038186803b15801561012f57600080fd5b505afa158015610143573d6000803e3d6000fd5b505050506040513d602081101561015957600080fd5b8101908080519060200190929190505050600481905550610185565b604051610b7c806107a083390190565b61060c806101946000396000f3fe608060405260043610610099576000357c0100000000000000000000000000000000000000000000000000000000900463ffffffff1680631ca6615b1461009e5780631cf3cd07146100ed5780632453ffa81461015f57806324f638941461018a5780634a8dd507146101c55780637d41fdd9146101f0578063ba2255f41461022b578063e31f2d6e14610266578063ef18e9ed146102b4575b600080fd5b3480156100aa57600080fd5b506100eb600480360360608110156100c157600080fd5b810190808035906020019092919080359060200190929190803590602001909291905050506102ef565b005b3480156100f957600080fd5b506101266004803603602081101561011057600080fd5b81019080803590602001909291905050506103d0565b60405180878152602001868152602001858152602001848152602001838152602001828152602001965050505050505060405180910390f35b34801561016b57600080fd5b5061017461040c565b6040518082815260200191505060405180910390f35b34801561019657600080fd5b506101c3600480360360208110156101ad57600080fd5b8101908080359060200190929190505050610412565b005b3480156101d157600080fd5b506101da6104a0565b6040518082815260200191505060405180910390f35b3480156101fc57600080fd5b506102296004803603602081101561021357600080fd5b81019080803590602001909291905050506104a6565b005b34801561023757600080fd5b506102646004803603602081101561024e57600080fd5b81019080803590602001909291905050506104b9565b005b34801561027257600080fd5b5061027b610528565b60405180878152602001868152602001858152602001848152602001838152602001828152602001965050505050505060405180910390f35b3480156102c057600080fd5b506102ed600480360360208110156102d757600080fd5b8101908080359060200190929190505050610552565b005b6000600254905060c060405190810160405280600454815260200182815260200185815260200184815260200183815260200160008152506006600082015181600001556020820151816001015560408201518160020155606082015181600301556080820151816004015560a08201518160050155905050600660056000600160008154600101919050819055815260200190815260200160002060008201548160000155600182015481600101556002820154816002015560038201548160030155600482015481600401556005820154816005015590505050505050565b60056020528060005260406000206000915090508060000154908060010154908060020154908060030154908060040154908060050154905086565b60015481565b600254811115151561042357600080fd5b6000600190505b60015481101561049c5760006005600083815260200190815260200160002060050154141561048f57816005600083815260200190815260200160002060000154141561048e57600260056000838152602001908152602001600020600501819055505b5b808060010191505061042a565b5050565b60025481565b6002600081546001019190508190555050565b80600660040181905550600660056000600160008154600101919050819055815260200190815260200160002060008201548160000155600182015481600101556002820154816002015560038201548160030155600482015481600401556005820154816005015590505050565b60068060000154908060010154908060020154908060030154908060040154908060050154905086565b600254811115151561056357600080fd5b6000600190505b6001548110156105dc576000600560008381526020019081526020016000206005015414156105cf5781600560008381526020019081526020016000206000015414156105ce57600160056000838152602001908152602001600020600501819055505b5b808060010191505061056a565b505056fea165627a7a723058205eb4268c58aa07968af14f4b26b9a04ad4a6f0b8d114ddc41558c323d31b396d0029608060405234801561001057600080fd5b5033600160006101000a81548173ffffffffffffffffffffffffffffffffffffffff021916908373ffffffffffffffffffffffffffffffffffffffff1602179055507f20000000000000000000000000000000000000000000000000000000000000006002819055506001600460003373ffffffffffffffffffffffffffffffffffffffff1673ffffffffffffffffffffffffffffffffffffffff1681526020019081526020016000208190555033600360006001815260200190815260200160002060000160006101000a81548173ffffffffffffffffffffffffffffffffffffffff021916908373ffffffffffffffffffffffffffffffffffffffff1602179055507f41646d696e0000000000000000000000000000000000000000000000000000006003600060018152602001908152602001600020600101819055507f61646d696e402e646173646861000000000000000000000000000000000000006003600060018152602001908152602001600020600201819055507f37383935343632343631320000000000000000000000000000000000000000006003600060018152602001908152602001600020600301819055507f343635617334366461733164363231000000000000000000000000000000000060036000600181526020019081526020016000206004018190555060038060006001815260200190815260200160002060050160006101000a81548160ff0219169083600481111561023757fe5b02179055506001600081905550610929806102536000396000f3fe608060405260043610610083576000357c0100000000000000000000000000000000000000000000000000000000900463ffffffff16806307973ccf146100885780630ff4c916146100b35780631ca8b0b8146101025780632bcc23f8146103bc5780639e1ae6b514610421578063cfb51928146104cd578063f851a440146105a9575b600080fd5b34801561009457600080fd5b5061009d610600565b6040518082815260200191505060405180910390f35b3480156100bf57600080fd5b506100ec600480360360208110156100d657600080fd5b8101908080359060200190929190505050610606565b6040518082815260200191505060405180910390f35b34801561010e57600080fd5b506103ba600480360360c081101561012557600080fd5b81019080803573ffffffffffffffffffffffffffffffffffffffff1690602001909291908035906020019064010000000081111561016257600080fd5b82018360208201111561017457600080fd5b8035906020019184600183028401116401000000008311171561019657600080fd5b91908080601f016020809104026020016040519081016040528093929190818152602001838380828437600081840152601f19601f820116905080830192505050505050509192919290803590602001906401000000008111156101f957600080fd5b82018360208201111561020b57600080fd5b8035906020019184600183028401116401000000008311171561022d57600080fd5b91908080601f016020809104026020016040519081016040528093929190818152602001838380828437600081840152601f19601f8201169050808301925050505050505091929192908035906020019064010000000081111561029057600080fd5b8201836020820111156102a257600080fd5b803590602001918460018302840111640100000000831117156102c457600080fd5b91908080601f016020809104026020016040519081016040528093929190818152602001838380828437600081840152601f19601f8201169050808301925050505050505091929192908035906020019064010000000081111561032757600080fd5b82018360208201111561033957600080fd5b8035906020019184600183028401116401000000008311171561035b57600080fd5b91908080601f016020809104026020016040519081016040528093929190818152602001838380828437600081840152601f19601f820116905080830192505050505050509192919290803560ff16906020019092919050505061063e565b005b3480156103c857600080fd5b5061040b600480360360208110156103df57600080fd5b81019080803573ffffffffffffffffffffffffffffffffffffffff16906020019092919050505061082a565b6040518082815260200191505060405180910390f35b34801561042d57600080fd5b5061045a6004803603602081101561044457600080fd5b8101908080359060200190929190505050610842565b604051808773ffffffffffffffffffffffffffffffffffffffff1673ffffffffffffffffffffffffffffffffffffffff1681526020018681526020018581526020018481526020018381526020018260048111156104b457fe5b60ff168152602001965050505050505060405180910390f35b3480156104d957600080fd5b50610593600480360360208110156104f057600080fd5b810190808035906020019064010000000081111561050d57600080fd5b82018360208201111561051f57600080fd5b8035906020019184600183028401116401000000008311171561054157600080fd5b91908080601f016020809104026020016040519081016040528093929190818152602001838380828437600081840152601f19601f8201169050808301925050505050505091929192905050506108ab565b6040518082815260200191505060405180910390f35b3480156105b557600080fd5b506105be6108d7565b604051808273ffffffffffffffffffffffffffffffffffffffff1673ffffffffffffffffffffffffffffffffffffffff16815260200191505060405180910390f35b60005481565b60006003600083815260200190815260200160002060050160009054906101000a900460ff16600481111561063757fe5b9050919050565b600160009054906101000a900473ffffffffffffffffffffffffffffffffffffffff1673ffffffffffffffffffffffffffffffffffffffff163373ffffffffffffffffffffffffffffffffffffffff1614151561069a57600080fd5b60006106a5866108ab565b905060006106b2866108ab565b905060006106bf866108ab565b905060006106cc866108ab565b905060c0604051908101604052808b73ffffffffffffffffffffffffffffffffffffffff16815260200185815260200184815260200183815260200182815260200186600481111561071a57fe5b815250600360008060008154600101919050819055815260200190815260200160002060008201518160000160006101000a81548173ffffffffffffffffffffffffffffffffffffffff021916908373ffffffffffffffffffffffffffffffffffffffff1602179055506020820151816001015560408201518160020155606082015181600301556080820151816004015560a08201518160050160006101000a81548160ff021916908360048111156107d057fe5b0217905550905050600054600460008c73ffffffffffffffffffffffffffffffffffffffff1673ffffffffffffffffffffffffffffffffffffffff1681526020019081526020016000208190555050505050505050505050565b60046020528060005260406000206000915090505481565b60036020528060005260406000206000915090508060000160009054906101000a900473ffffffffffffffffffffffffffffffffffffffff16908060010154908060020154908060030154908060040154908060050160009054906101000a900460ff16905086565b600060608290506000815114156108c95760006001029150506108d2565b60208301519150505b919050565b600160009054906101000a900473ffffffffffffffffffffffffffffffffffffffff168156fea165627a7a72305820456298da80cdd61641f58bbacffa9f0930700759592f6030514e9b3da21b022e0029",
  "source": "pragma solidity ^0.5.0;\r\n\r\nimport \"./UserInfo.sol\";\r\n\r\ncontract OrderWholesaler{\r\n\t\r\n\t// enum status{\r\n\t// \tpending,\r\n\t// \taccepted,\r\n\t// \trejected\r\n\t// }\r\n\tUserInfo user;\r\n\tuint public orderCount;\r\n\tuint public distinctOrders;\r\n\tuint defManId;\r\n\tuint userId;\r\n\r\n\t//struct of order placed by wholesaler\r\n\tstruct Order{\r\n\t\tuint orderId;\r\n\t\tuint medId;\r\n\t\tuint count;\r\n\t\tuint uid;\r\n\t\tuint manId;\r\n\t\tuint status;\r\n\t}\r\n\r\n\tconstructor() public{\r\n\t\tuser = new UserInfo();\r\n\t\tuserId = user.userMap(msg.sender);\r\n\t}\r\n\r\n\tmapping(uint=>Order) public orderMap;\r\n\tOrder public obj;\r\n\r\n\t//initialize order object\r\n\tfunction startOrder(uint manId) public {\r\n\t\t++distinctOrders;\r\n\t}\r\n\r\n\t//complete and place order\r\n\tfunction placeOrder(uint manId) public{\r\n\t\tobj.manId = manId;\r\n\t\torderMap[++orderCount] = obj;\r\n\t}\r\n\r\n\t//append medicines to list\r\n\tfunction addMedToOrder(uint medId, uint count,uint manId) public {\r\n\t\tuint orderId = distinctOrders;\r\n\t\tobj = Order(userId,orderId,medId,count,manId,0);\r\n\t\torderMap[++orderCount] = obj;\r\n\t}\r\n\r\n\tfunction acceptOrder(uint orderId) public{\r\n\t\trequire(orderId<=distinctOrders);\r\n\t\tfor(uint i=1;i<orderCount;i++){\r\n\t\t\tif(orderMap[i].status == 0){\r\n\t\t\t\tif(orderMap[i].orderId == orderId){\r\n\t\t\t\t\torderMap[i].status = uint(1);\r\n\t\t\t\t}\r\n\t\t\t}\r\n\t\t\t\r\n\t\t}\r\n\t}\r\n\r\n\tfunction rejectOrder(uint orderId) public{\r\n\t\trequire(orderId<=distinctOrders);\r\n\t\tfor(uint i=1;i<orderCount;i++){\r\n\t\t\tif(orderMap[i].status == 0){\r\n\t\t\t\tif(orderMap[i].orderId == orderId){\r\n\t\t\t\t\torderMap[i].status = uint(2);\r\n\t\t\t\t}\r\n\t\t\t}\r\n\t\t}\r\n\t}\r\n\r\n}",
  "sourcePath": "C:/Users/Milan.DESKTOP-NG9HRFU/Desktop/Bitcamp2019/MedChain/contracts/OrderWholesaler.sol",
  "compiler": {
    "name": "solc",
    "version": "0.5.0+commit.1d4f565a.Emscripten.clang"
  },
  "schemaVersion": "3.0.5",
  "updatedAt": "2019-03-31T02:39:03.746Z",
  "devdoc": {
    "methods": {}
  },
  "userdoc": {
    "methods": {}
  }
}