{
  "contractName": "UserInfo",
  "abi": [
    {
      "constant": true,
      "inputs": [],
      "name": "userCount",
      "outputs": [
        {
          "name": "",
          "type": "uint256"
        }
      ],
      "payable": false,
      "stateMutability": "view",
      "type": "function",
      "signature": "0x07973ccf"
    },
    {
      "constant": true,
      "inputs": [
        {
          "name": "",
          "type": "address"
        }
      ],
      "name": "userMap",
      "outputs": [
        {
          "name": "",
          "type": "uint256"
        }
      ],
      "payable": false,
      "stateMutability": "view",
      "type": "function",
      "signature": "0x2bcc23f8"
    },
    {
      "constant": true,
      "inputs": [
        {
          "name": "",
          "type": "uint256"
        }
      ],
      "name": "userslist",
      "outputs": [
        {
          "name": "accountId",
          "type": "address"
        },
        {
          "name": "name",
          "type": "bytes32"
        },
        {
          "name": "email",
          "type": "bytes32"
        },
        {
          "name": "contactNumber",
          "type": "bytes32"
        },
        {
          "name": "licenseid",
          "type": "bytes32"
        },
        {
          "name": "utype",
          "type": "uint8"
        }
      ],
      "payable": false,
      "stateMutability": "view",
      "type": "function",
      "signature": "0x9e1ae6b5"
    },
    {
      "constant": true,
      "inputs": [],
      "name": "admin",
      "outputs": [
        {
          "name": "",
          "type": "address"
        }
      ],
      "payable": false,
      "stateMutability": "view",
      "type": "function",
      "signature": "0xf851a440"
    },
    {
      "inputs": [],
      "payable": false,
      "stateMutability": "nonpayable",
      "type": "constructor",
      "signature": "constructor"
    },
    {
      "constant": false,
      "inputs": [
        {
          "name": "source",
          "type": "string"
        }
      ],
      "name": "stringToBytes32",
      "outputs": [
        {
          "name": "result",
          "type": "bytes32"
        }
      ],
      "payable": false,
      "stateMutability": "nonpayable",
      "type": "function",
      "signature": "0xcfb51928"
    },
    {
      "constant": false,
      "inputs": [
        {
          "name": "account",
          "type": "address"
        },
        {
          "name": "uname",
          "type": "string"
        },
        {
          "name": "uemail",
          "type": "string"
        },
        {
          "name": "ucontactNumber",
          "type": "string"
        },
        {
          "name": "ulicenseid",
          "type": "string"
        },
        {
          "name": "utype",
          "type": "uint8"
        }
      ],
      "name": "addUser",
      "outputs": [],
      "payable": false,
      "stateMutability": "nonpayable",
      "type": "function",
      "signature": "0x1ca8b0b8"
    },
    {
      "constant": false,
      "inputs": [
        {
          "name": "_index",
          "type": "uint256"
        }
      ],
      "name": "getValue",
      "outputs": [
        {
          "name": "",
          "type": "uint256"
        }
      ],
      "payable": false,
      "stateMutability": "nonpayable",
      "type": "function",
      "signature": "0x0ff4c916"
    }
  ],
  "bytecode": "0x608060405234801561001057600080fd5b5033600160006101000a81548173ffffffffffffffffffffffffffffffffffffffff021916908373ffffffffffffffffffffffffffffffffffffffff1602179055507f20000000000000000000000000000000000000000000000000000000000000006002819055506001600460003373ffffffffffffffffffffffffffffffffffffffff1673ffffffffffffffffffffffffffffffffffffffff1681526020019081526020016000208190555033600360006001815260200190815260200160002060000160006101000a81548173ffffffffffffffffffffffffffffffffffffffff021916908373ffffffffffffffffffffffffffffffffffffffff1602179055507f41646d696e0000000000000000000000000000000000000000000000000000006003600060018152602001908152602001600020600101819055507f61646d696e402e646173646861000000000000000000000000000000000000006003600060018152602001908152602001600020600201819055507f37383935343632343631320000000000000000000000000000000000000000006003600060018152602001908152602001600020600301819055507f343635617334366461733164363231000000000000000000000000000000000060036000600181526020019081526020016000206004018190555060038060006001815260200190815260200160002060050160006101000a81548160ff0219169083600481111561023757fe5b02179055506001600081905550610929806102536000396000f3fe608060405260043610610083576000357c0100000000000000000000000000000000000000000000000000000000900463ffffffff16806307973ccf146100885780630ff4c916146100b35780631ca8b0b8146101025780632bcc23f8146103bc5780639e1ae6b514610421578063cfb51928146104cd578063f851a440146105a9575b600080fd5b34801561009457600080fd5b5061009d610600565b6040518082815260200191505060405180910390f35b3480156100bf57600080fd5b506100ec600480360360208110156100d657600080fd5b8101908080359060200190929190505050610606565b6040518082815260200191505060405180910390f35b34801561010e57600080fd5b506103ba600480360360c081101561012557600080fd5b81019080803573ffffffffffffffffffffffffffffffffffffffff1690602001909291908035906020019064010000000081111561016257600080fd5b82018360208201111561017457600080fd5b8035906020019184600183028401116401000000008311171561019657600080fd5b91908080601f016020809104026020016040519081016040528093929190818152602001838380828437600081840152601f19601f820116905080830192505050505050509192919290803590602001906401000000008111156101f957600080fd5b82018360208201111561020b57600080fd5b8035906020019184600183028401116401000000008311171561022d57600080fd5b91908080601f016020809104026020016040519081016040528093929190818152602001838380828437600081840152601f19601f8201169050808301925050505050505091929192908035906020019064010000000081111561029057600080fd5b8201836020820111156102a257600080fd5b803590602001918460018302840111640100000000831117156102c457600080fd5b91908080601f016020809104026020016040519081016040528093929190818152602001838380828437600081840152601f19601f8201169050808301925050505050505091929192908035906020019064010000000081111561032757600080fd5b82018360208201111561033957600080fd5b8035906020019184600183028401116401000000008311171561035b57600080fd5b91908080601f016020809104026020016040519081016040528093929190818152602001838380828437600081840152601f19601f820116905080830192505050505050509192919290803560ff16906020019092919050505061063e565b005b3480156103c857600080fd5b5061040b600480360360208110156103df57600080fd5b81019080803573ffffffffffffffffffffffffffffffffffffffff16906020019092919050505061082a565b6040518082815260200191505060405180910390f35b34801561042d57600080fd5b5061045a6004803603602081101561044457600080fd5b8101908080359060200190929190505050610842565b604051808773ffffffffffffffffffffffffffffffffffffffff1673ffffffffffffffffffffffffffffffffffffffff1681526020018681526020018581526020018481526020018381526020018260048111156104b457fe5b60ff168152602001965050505050505060405180910390f35b3480156104d957600080fd5b50610593600480360360208110156104f057600080fd5b810190808035906020019064010000000081111561050d57600080fd5b82018360208201111561051f57600080fd5b8035906020019184600183028401116401000000008311171561054157600080fd5b91908080601f016020809104026020016040519081016040528093929190818152602001838380828437600081840152601f19601f8201169050808301925050505050505091929192905050506108ab565b6040518082815260200191505060405180910390f35b3480156105b557600080fd5b506105be6108d7565b604051808273ffffffffffffffffffffffffffffffffffffffff1673ffffffffffffffffffffffffffffffffffffffff16815260200191505060405180910390f35b60005481565b60006003600083815260200190815260200160002060050160009054906101000a900460ff16600481111561063757fe5b9050919050565b600160009054906101000a900473ffffffffffffffffffffffffffffffffffffffff1673ffffffffffffffffffffffffffffffffffffffff163373ffffffffffffffffffffffffffffffffffffffff1614151561069a57600080fd5b60006106a5866108ab565b905060006106b2866108ab565b905060006106bf866108ab565b905060006106cc866108ab565b905060c0604051908101604052808b73ffffffffffffffffffffffffffffffffffffffff16815260200185815260200184815260200183815260200182815260200186600481111561071a57fe5b815250600360008060008154600101919050819055815260200190815260200160002060008201518160000160006101000a81548173ffffffffffffffffffffffffffffffffffffffff021916908373ffffffffffffffffffffffffffffffffffffffff1602179055506020820151816001015560408201518160020155606082015181600301556080820151816004015560a08201518160050160006101000a81548160ff021916908360048111156107d057fe5b0217905550905050600054600460008c73ffffffffffffffffffffffffffffffffffffffff1673ffffffffffffffffffffffffffffffffffffffff1681526020019081526020016000208190555050505050505050505050565b60046020528060005260406000206000915090505481565b60036020528060005260406000206000915090508060000160009054906101000a900473ffffffffffffffffffffffffffffffffffffffff16908060010154908060020154908060030154908060040154908060050160009054906101000a900460ff16905086565b600060608290506000815114156108c95760006001029150506108d2565b60208301519150505b919050565b600160009054906101000a900473ffffffffffffffffffffffffffffffffffffffff168156fea165627a7a72305820456298da80cdd61641f58bbacffa9f0930700759592f6030514e9b3da21b022e0029",
  "source": "pragma solidity ^0.5.0;\r\n\r\ncontract UserInfo {\r\n\r\n\tenum userType{\r\n\t\tManufacturer,\r\n\t\tWholeSale_Dealer,\r\n\t\tPharmasists,\r\n\t\tAdmin,\r\n\t\tTransporter\r\n\t}\r\n\t//Model an order\r\n\tstruct User {\r\n\t\taddress accountId;\r\n\t\tbytes32 name;\r\n\t\tbytes32 email;\r\n\t\tbytes32 contactNumber;\r\n\t\tbytes32 licenseid;\r\n\t\tuserType utype;\r\n\t}\r\n\r\n\t//storing number of users\r\n\tuint public userCount;\r\n\taddress public admin;\r\n\tbytes32 admin_license;\r\n\t\r\n\t//Store the users in the system\r\n\tmapping(uint=> User ) public userslist;\r\n\t//map for userindex to account address\r\n\tmapping(address=>uint) public userMap;\r\n\r\n\tconstructor() public {\r\n\t\tadmin = msg.sender;\r\n\t\tadmin_license = \" \";\r\n\t\tuserMap[msg.sender] = 1; \r\n\t\tuserslist[1].accountId = msg.sender;\r\n\t\tuserslist[1].name = 'Admin';\r\n\t\tuserslist[1].email = 'admin@.dasdha';\r\n\t\tuserslist[1].contactNumber = '78954624612';\r\n\t\tuserslist[1].licenseid = '465as46das1d621';\r\n\t\tuserslist[1].utype = userType.Admin;\r\n\t\tuserCount = 1;\r\n\t}\r\n\r\n\tmodifier onlyAdmin{ \r\n\t\trequire (msg.sender == admin); \r\n\t\t_; \r\n\t}\r\n\r\n\tfunction stringToBytes32(string memory source) public returns (bytes32 result) {\r\n\t    bytes memory tempEmptyStringTest = bytes(source);\r\n\t    if (tempEmptyStringTest.length == 0) {\r\n\t        return 0x0;\r\n\t    }\r\n\r\n\t    assembly {\r\n\t        result := mload(add(source, 32))\r\n\t    }\r\n\t}\r\n\t\r\n\r\n\tfunction addUser(address account,string memory uname,string memory uemail,string memory ucontactNumber, string memory ulicenseid, userType utype) public onlyAdmin{\r\n        bytes32 name = stringToBytes32(uname);\r\n        bytes32 email = stringToBytes32(uemail);\r\n        bytes32 contactNumber = stringToBytes32(ucontactNumber);\r\n        bytes32 licenseid = stringToBytes32(ulicenseid);\r\n        userslist[++userCount] = User(account, name, email, contactNumber, licenseid, utype);\r\n        userMap[account] = userCount;\r\n\t}\r\n\r\n\tfunction getValue(uint _index)public returns (uint){\r\n      return uint(userslist[_index].utype);\r\n  }\r\n\r\n}\r\n\r\n",
  "sourcePath": "C:\\Users\\Milan.DESKTOP-NG9HRFU\\Desktop\\Bitcamp2019\\MedChain\\contracts\\UserInfo.sol",
  "compiler": {
    "name": "solc",
    "version": "0.5.0+commit.1d4f565a.Emscripten.clang"
  },
  "schemaVersion": "3.0.5",
  "updatedAt": "2019-03-31T02:39:02.804Z",
  "devdoc": {
    "methods": {}
  },
  "userdoc": {
    "methods": {}
  }
}