{
  "contractName": "UserInfo",
  "abi": [
    {
      "constant": true,
      "inputs": [],
      "name": "userCount",
      "outputs": [
        {
          "name": "",
          "type": "uint256"
        }
      ],
      "payable": false,
      "stateMutability": "view",
      "type": "function",
      "signature": "0x07973ccf"
    },
    {
      "constant": true,
      "inputs": [
        {
          "name": "",
          "type": "address"
        }
      ],
      "name": "userMap",
      "outputs": [
        {
          "name": "",
          "type": "uint256"
        }
      ],
      "payable": false,
      "stateMutability": "view",
      "type": "function",
      "signature": "0x2bcc23f8"
    },
    {
      "constant": true,
      "inputs": [
        {
          "name": "",
          "type": "uint256"
        }
      ],
      "name": "userslist",
      "outputs": [
        {
          "name": "accountId",
          "type": "address"
        },
        {
          "name": "name",
          "type": "bytes32"
        },
        {
          "name": "email",
          "type": "bytes32"
        },
        {
          "name": "contactNumber",
          "type": "bytes32"
        },
        {
          "name": "licenseid",
          "type": "bytes32"
        },
        {
          "name": "utype",
          "type": "uint8"
        }
      ],
      "payable": false,
      "stateMutability": "view",
      "type": "function",
      "signature": "0x9e1ae6b5"
    },
    {
      "constant": true,
      "inputs": [],
      "name": "admin",
      "outputs": [
        {
          "name": "",
          "type": "address"
        }
      ],
      "payable": false,
      "stateMutability": "view",
      "type": "function",
      "signature": "0xf851a440"
    },
    {
      "inputs": [],
      "payable": false,
      "stateMutability": "nonpayable",
      "type": "constructor",
      "signature": "constructor"
    },
    {
      "constant": false,
      "inputs": [
        {
          "name": "source",
          "type": "string"
        }
      ],
      "name": "stringToBytes32",
      "outputs": [
        {
          "name": "result",
          "type": "bytes32"
        }
      ],
      "payable": false,
      "stateMutability": "nonpayable",
      "type": "function",
      "signature": "0xcfb51928"
    },
    {
      "constant": false,
      "inputs": [
        {
          "name": "uname",
          "type": "string"
        },
        {
          "name": "uemail",
          "type": "string"
        },
        {
          "name": "ucontactNumber",
          "type": "string"
        }
      ],
      "name": "users",
      "outputs": [],
      "payable": false,
      "stateMutability": "nonpayable",
      "type": "function",
      "signature": "0x1433af07"
    },
    {
      "constant": false,
      "inputs": [
        {
          "name": "account",
          "type": "address"
        },
        {
          "name": "uname",
          "type": "string"
        },
        {
          "name": "uemail",
          "type": "string"
        },
        {
          "name": "ucontactNumber",
          "type": "string"
        },
        {
          "name": "ulicenseid",
          "type": "string"
        },
        {
          "name": "utype",
          "type": "uint8"
        }
      ],
      "name": "addUser",
      "outputs": [],
      "payable": false,
      "stateMutability": "nonpayable",
      "type": "function",
      "signature": "0x1ca8b0b8"
    }
  ],
  "bytecode": "0x608060405234801561001057600080fd5b5033600160006101000a81548173ffffffffffffffffffffffffffffffffffffffff021916908373ffffffffffffffffffffffffffffffffffffffff1602179055507f2000000000000000000000000000000000000000000000000000000000000000600281905550610c5e806100886000396000f3fe608060405260043610610083576000357c0100000000000000000000000000000000000000000000000000000000900463ffffffff16806307973ccf146100885780631433af07146100b35780631ca8b0b8146102a95780632bcc23f8146105635780639e1ae6b5146105c8578063cfb5192814610674578063f851a44014610750575b600080fd5b34801561009457600080fd5b5061009d6107a7565b6040518082815260200191505060405180910390f35b3480156100bf57600080fd5b506102a7600480360360608110156100d657600080fd5b81019080803590602001906401000000008111156100f357600080fd5b82018360208201111561010557600080fd5b8035906020019184600183028401116401000000008311171561012757600080fd5b91908080601f016020809104026020016040519081016040528093929190818152602001838380828437600081840152601f19601f8201169050808301925050505050505091929192908035906020019064010000000081111561018a57600080fd5b82018360208201111561019c57600080fd5b803590602001918460018302840111640100000000831117156101be57600080fd5b91908080601f016020809104026020016040519081016040528093929190818152602001838380828437600081840152601f19601f8201169050808301925050505050505091929192908035906020019064010000000081111561022157600080fd5b82018360208201111561023357600080fd5b8035906020019184600183028401116401000000008311171561025557600080fd5b91908080601f016020809104026020016040519081016040528093929190818152602001838380828437600081840152601f19601f8201169050808301925050505050505091929192905050506107ad565b005b3480156102b557600080fd5b50610561600480360360c08110156102cc57600080fd5b81019080803573ffffffffffffffffffffffffffffffffffffffff1690602001909291908035906020019064010000000081111561030957600080fd5b82018360208201111561031b57600080fd5b8035906020019184600183028401116401000000008311171561033d57600080fd5b91908080601f016020809104026020016040519081016040528093929190818152602001838380828437600081840152601f19601f820116905080830192505050505050509192919290803590602001906401000000008111156103a057600080fd5b8201836020820111156103b257600080fd5b803590602001918460018302840111640100000000831117156103d457600080fd5b91908080601f016020809104026020016040519081016040528093929190818152602001838380828437600081840152601f19601f8201169050808301925050505050505091929192908035906020019064010000000081111561043757600080fd5b82018360208201111561044957600080fd5b8035906020019184600183028401116401000000008311171561046b57600080fd5b91908080601f016020809104026020016040519081016040528093929190818152602001838380828437600081840152601f19601f820116905080830192505050505050509192919290803590602001906401000000008111156104ce57600080fd5b8201836020820111156104e057600080fd5b8035906020019184600183028401116401000000008311171561050257600080fd5b91908080601f016020809104026020016040519081016040528093929190818152602001838380828437600081840152601f19601f820116905080830192505050505050509192919290803560ff169060200190929190505050610973565b005b34801561056f57600080fd5b506105b26004803603602081101561058657600080fd5b81019080803573ffffffffffffffffffffffffffffffffffffffff169060200190929190505050610b5f565b6040518082815260200191505060405180910390f35b3480156105d457600080fd5b50610601600480360360208110156105eb57600080fd5b8101908080359060200190929190505050610b77565b604051808773ffffffffffffffffffffffffffffffffffffffff1673ffffffffffffffffffffffffffffffffffffffff16815260200186815260200185815260200184815260200183815260200182600481111561065b57fe5b60ff168152602001965050505050505060405180910390f35b34801561068057600080fd5b5061073a6004803603602081101561069757600080fd5b81019080803590602001906401000000008111156106b457600080fd5b8201836020820111156106c657600080fd5b803590602001918460018302840111640100000000831117156106e857600080fd5b91908080601f016020809104026020016040519081016040528093929190818152602001838380828437600081840152601f19601f820116905080830192505050505050509192919290505050610be0565b6040518082815260200191505060405180910390f35b34801561075c57600080fd5b50610765610c0c565b604051808273ffffffffffffffffffffffffffffffffffffffff1673ffffffffffffffffffffffffffffffffffffffff16815260200191505060405180910390f35b60005481565b60006107b884610be0565b905060006107c584610be0565b905060006107d284610be0565b905060c060405190810160405280600160009054906101000a900473ffffffffffffffffffffffffffffffffffffffff1673ffffffffffffffffffffffffffffffffffffffff16815260200184815260200183815260200182815260200160025481526020016003600481111561084557fe5b815250600360008060008154600101919050819055815260200190815260200160002060008201518160000160006101000a81548173ffffffffffffffffffffffffffffffffffffffff021916908373ffffffffffffffffffffffffffffffffffffffff1602179055506020820151816001015560408201518160020155606082015181600301556080820151816004015560a08201518160050160006101000a81548160ff021916908360048111156108fb57fe5b021790555090505060005460046000600160009054906101000a900473ffffffffffffffffffffffffffffffffffffffff1673ffffffffffffffffffffffffffffffffffffffff1673ffffffffffffffffffffffffffffffffffffffff16815260200190815260200160002081905550505050505050565b600160009054906101000a900473ffffffffffffffffffffffffffffffffffffffff1673ffffffffffffffffffffffffffffffffffffffff163373ffffffffffffffffffffffffffffffffffffffff161415156109cf57600080fd5b60006109da86610be0565b905060006109e786610be0565b905060006109f486610be0565b90506000610a0186610be0565b905060c0604051908101604052808b73ffffffffffffffffffffffffffffffffffffffff168152602001858152602001848152602001838152602001828152602001866004811115610a4f57fe5b815250600360008060008154600101919050819055815260200190815260200160002060008201518160000160006101000a81548173ffffffffffffffffffffffffffffffffffffffff021916908373ffffffffffffffffffffffffffffffffffffffff1602179055506020820151816001015560408201518160020155606082015181600301556080820151816004015560a08201518160050160006101000a81548160ff02191690836004811115610b0557fe5b0217905550905050600054600460008c73ffffffffffffffffffffffffffffffffffffffff1673ffffffffffffffffffffffffffffffffffffffff1681526020019081526020016000208190555050505050505050505050565b60046020528060005260406000206000915090505481565b60036020528060005260406000206000915090508060000160009054906101000a900473ffffffffffffffffffffffffffffffffffffffff16908060010154908060020154908060030154908060040154908060050160009054906101000a900460ff16905086565b60006060829050600081511415610bfe576000600102915050610c07565b60208301519150505b919050565b600160009054906101000a900473ffffffffffffffffffffffffffffffffffffffff168156fea165627a7a72305820de602c478df37d6004c3e2272dd4e738a4e7ff951b387246cf94318b0dc4f8a30029",
  "source": "pragma solidity ^0.5.0;\r\n\r\ncontract UserInfo {\r\n\r\n\tenum userType{\r\n\t\tManufacturer,\r\n\t\tWholeSale_Dealer,\r\n\t\tPharmasists,\r\n\t\tAdmin,\r\n\t\tTransporter\r\n\t}\r\n\t//Model an order\r\n\tstruct User {\r\n\t\taddress accountId;\r\n\t\tbytes32 name;\r\n\t\tbytes32 email;\r\n\t\tbytes32 contactNumber;\r\n\t\tbytes32 licenseid;\r\n\t\tuserType utype;\r\n\t}\r\n\r\n\t//storing number of users\r\n\tuint public userCount;\r\n\taddress public admin;\r\n\tbytes32 admin_license;\r\n\t\r\n\t//Store the users in the system\r\n\tmapping(uint=> User ) public userslist;\r\n\t//map for userindex to account address\r\n\tmapping(address=>uint) public userMap;\r\n\r\n\tconstructor() public {\r\n\t\tadmin = msg.sender;\r\n\t\tadmin_license = \" \";\r\n\t}\r\n\r\n\tmodifier onlyAdmin{ \r\n\t\trequire (msg.sender == admin); \r\n\t\t_; \r\n\t}\r\n\r\n\tfunction stringToBytes32(string memory source) public returns (bytes32 result) {\r\n\t    bytes memory tempEmptyStringTest = bytes(source);\r\n\t    if (tempEmptyStringTest.length == 0) {\r\n\t        return 0x0;\r\n\t    }\r\n\r\n\t    assembly {\r\n\t        result := mload(add(source, 32))\r\n\t    }\r\n\t}\r\n\t\r\n\tfunction users(string memory uname, string memory uemail, string memory ucontactNumber) public {\r\n        // Admin is the first user of the system at index 1\r\n        bytes32 name = stringToBytes32(uname);\r\n        bytes32 email = stringToBytes32(uemail);\r\n        bytes32 contactNumber = stringToBytes32(ucontactNumber);\r\n        userslist[++userCount] = User(admin, name, email, contactNumber, admin_license, userType.Admin);\r\n        userMap[admin] = userCount;\r\n    }\r\n\r\n\tfunction addUser(address account,string memory uname,string memory uemail,string memory ucontactNumber, string memory ulicenseid, userType utype) public onlyAdmin{\r\n        bytes32 name = stringToBytes32(uname);\r\n        bytes32 email = stringToBytes32(uemail);\r\n        bytes32 contactNumber = stringToBytes32(ucontactNumber);\r\n        bytes32 licenseid = stringToBytes32(ulicenseid);\r\n        userslist[++userCount] = User(account, name, email, contactNumber, licenseid, utype);\r\n        userMap[account] = userCount;\r\n\t}\r\n\r\n}\r\n\r\n",
  "sourcePath": "C:/MedChain/contracts/UserInfo.sol",
  "compiler": {
    "name": "solc",
    "version": "0.5.0+commit.1d4f565a.Emscripten.clang"
  },
  "schemaVersion": "3.0.6",
  "updatedAt": "2019-03-30T13:26:17.909Z",
  "devdoc": {
    "methods": {}
  },
  "userdoc": {
    "methods": {}
  }
}