{
  "contractName": "UserInfo",
  "abi": [
    {
      "constant": true,
      "inputs": [],
      "name": "userCount",
      "outputs": [
        {
          "name": "",
          "type": "uint256"
        }
      ],
      "payable": false,
      "stateMutability": "view",
      "type": "function",
      "signature": "0x07973ccf"
    },
    {
      "constant": true,
      "inputs": [
        {
          "name": "",
          "type": "address"
        }
      ],
      "name": "userMap",
      "outputs": [
        {
          "name": "",
          "type": "uint256"
        }
      ],
      "payable": false,
      "stateMutability": "view",
      "type": "function",
      "signature": "0x2bcc23f8"
    },
    {
      "constant": true,
      "inputs": [
        {
          "name": "",
          "type": "uint256"
        }
      ],
      "name": "userslist",
      "outputs": [
        {
          "name": "accountId",
          "type": "address"
        },
        {
          "name": "name",
          "type": "bytes32"
        },
        {
          "name": "email",
          "type": "bytes32"
        },
        {
          "name": "contactNumber",
          "type": "bytes32"
        },
        {
          "name": "licenseid",
          "type": "bytes32"
        },
        {
          "name": "utype",
          "type": "uint8"
        }
      ],
      "payable": false,
      "stateMutability": "view",
      "type": "function",
      "signature": "0x9e1ae6b5"
    },
    {
      "constant": true,
      "inputs": [],
      "name": "admin",
      "outputs": [
        {
          "name": "",
          "type": "address"
        }
      ],
      "payable": false,
      "stateMutability": "view",
      "type": "function",
      "signature": "0xf851a440"
    },
    {
      "inputs": [],
      "payable": false,
      "stateMutability": "nonpayable",
      "type": "constructor",
      "signature": "constructor"
    },
    {
      "constant": false,
      "inputs": [
        {
          "name": "source",
          "type": "string"
        }
      ],
      "name": "stringToBytes32",
      "outputs": [
        {
          "name": "result",
          "type": "bytes32"
        }
      ],
      "payable": false,
      "stateMutability": "nonpayable",
      "type": "function",
      "signature": "0xcfb51928"
    },
    {
      "constant": false,
      "inputs": [
        {
          "name": "account",
          "type": "address"
        },
        {
          "name": "uname",
          "type": "string"
        },
        {
          "name": "uemail",
          "type": "string"
        },
        {
          "name": "ucontactNumber",
          "type": "string"
        },
        {
          "name": "ulicenseid",
          "type": "string"
        },
        {
          "name": "utype",
          "type": "uint8"
        }
      ],
      "name": "addUser",
      "outputs": [],
      "payable": false,
      "stateMutability": "nonpayable",
      "type": "function",
      "signature": "0x1ca8b0b8"
    }
  ],
  "bytecode": "0x608060405234801561001057600080fd5b5033600160006101000a81548173ffffffffffffffffffffffffffffffffffffffff021916908373ffffffffffffffffffffffffffffffffffffffff1602179055507f2000000000000000000000000000000000000000000000000000000000000000600281905550610897806100886000396000f3fe608060405260043610610078576000357c0100000000000000000000000000000000000000000000000000000000900463ffffffff16806307973ccf1461007d5780631ca8b0b8146100a85780632bcc23f8146103625780639e1ae6b5146103c7578063cfb5192814610473578063f851a4401461054f575b600080fd5b34801561008957600080fd5b506100926105a6565b6040518082815260200191505060405180910390f35b3480156100b457600080fd5b50610360600480360360c08110156100cb57600080fd5b81019080803573ffffffffffffffffffffffffffffffffffffffff1690602001909291908035906020019064010000000081111561010857600080fd5b82018360208201111561011a57600080fd5b8035906020019184600183028401116401000000008311171561013c57600080fd5b91908080601f016020809104026020016040519081016040528093929190818152602001838380828437600081840152601f19601f8201169050808301925050505050505091929192908035906020019064010000000081111561019f57600080fd5b8201836020820111156101b157600080fd5b803590602001918460018302840111640100000000831117156101d357600080fd5b91908080601f016020809104026020016040519081016040528093929190818152602001838380828437600081840152601f19601f8201169050808301925050505050505091929192908035906020019064010000000081111561023657600080fd5b82018360208201111561024857600080fd5b8035906020019184600183028401116401000000008311171561026a57600080fd5b91908080601f016020809104026020016040519081016040528093929190818152602001838380828437600081840152601f19601f820116905080830192505050505050509192919290803590602001906401000000008111156102cd57600080fd5b8201836020820111156102df57600080fd5b8035906020019184600183028401116401000000008311171561030157600080fd5b91908080601f016020809104026020016040519081016040528093929190818152602001838380828437600081840152601f19601f820116905080830192505050505050509192919290803560ff1690602001909291905050506105ac565b005b34801561036e57600080fd5b506103b16004803603602081101561038557600080fd5b81019080803573ffffffffffffffffffffffffffffffffffffffff169060200190929190505050610798565b6040518082815260200191505060405180910390f35b3480156103d357600080fd5b50610400600480360360208110156103ea57600080fd5b81019080803590602001909291905050506107b0565b604051808773ffffffffffffffffffffffffffffffffffffffff1673ffffffffffffffffffffffffffffffffffffffff16815260200186815260200185815260200184815260200183815260200182600481111561045a57fe5b60ff168152602001965050505050505060405180910390f35b34801561047f57600080fd5b506105396004803603602081101561049657600080fd5b81019080803590602001906401000000008111156104b357600080fd5b8201836020820111156104c557600080fd5b803590602001918460018302840111640100000000831117156104e757600080fd5b91908080601f016020809104026020016040519081016040528093929190818152602001838380828437600081840152601f19601f820116905080830192505050505050509192919290505050610819565b6040518082815260200191505060405180910390f35b34801561055b57600080fd5b50610564610845565b604051808273ffffffffffffffffffffffffffffffffffffffff1673ffffffffffffffffffffffffffffffffffffffff16815260200191505060405180910390f35b60005481565b600160009054906101000a900473ffffffffffffffffffffffffffffffffffffffff1673ffffffffffffffffffffffffffffffffffffffff163373ffffffffffffffffffffffffffffffffffffffff1614151561060857600080fd5b600061061386610819565b9050600061062086610819565b9050600061062d86610819565b9050600061063a86610819565b905060c0604051908101604052808b73ffffffffffffffffffffffffffffffffffffffff16815260200185815260200184815260200183815260200182815260200186600481111561068857fe5b815250600360008060008154600101919050819055815260200190815260200160002060008201518160000160006101000a81548173ffffffffffffffffffffffffffffffffffffffff021916908373ffffffffffffffffffffffffffffffffffffffff1602179055506020820151816001015560408201518160020155606082015181600301556080820151816004015560a08201518160050160006101000a81548160ff0219169083600481111561073e57fe5b0217905550905050600054600460008c73ffffffffffffffffffffffffffffffffffffffff1673ffffffffffffffffffffffffffffffffffffffff1681526020019081526020016000208190555050505050505050505050565b60046020528060005260406000206000915090505481565b60036020528060005260406000206000915090508060000160009054906101000a900473ffffffffffffffffffffffffffffffffffffffff16908060010154908060020154908060030154908060040154908060050160009054906101000a900460ff16905086565b60006060829050600081511415610837576000600102915050610840565b60208301519150505b919050565b600160009054906101000a900473ffffffffffffffffffffffffffffffffffffffff168156fea165627a7a72305820d2565680381df317fc3201588352afdacf995ce74b4c4edbdf55fd62f475b9200029",
  "source": "pragma solidity ^0.5.0;\r\n\r\ncontract UserInfo {\r\n\r\n\tenum userType{\r\n\t\tManufacturer,\r\n\t\tWholeSale_Dealer,\r\n\t\tPharmasists,\r\n\t\tAdmin,\r\n\t\tTransporter\r\n\t}\r\n\t//Model an order\r\n\tstruct User {\r\n\t\taddress accountId;\r\n\t\tbytes32 name;\r\n\t\tbytes32 email;\r\n\t\tbytes32 contactNumber;\r\n\t\tbytes32 licenseid;\r\n\t\tuserType utype;\r\n\t}\r\n\r\n\t//storing number of users\r\n\tuint public userCount;\r\n\taddress public admin;\r\n\tbytes32 admin_license;\r\n\t\r\n\t//Store the users in the system\r\n\tmapping(uint=> User ) public userslist;\r\n\t//map for userindex to account address\r\n\tmapping(address=>uint) public userMap;\r\n\r\n\tconstructor() public {\r\n\t\tadmin = msg.sender;\r\n\t\tadmin_license = \" \";\r\n\t}\r\n\r\n\tmodifier onlyAdmin{ \r\n\t\trequire (msg.sender == admin); \r\n\t\t_; \r\n\t}\r\n\r\n\tfunction stringToBytes32(string memory source) public returns (bytes32 result) {\r\n\t    bytes memory tempEmptyStringTest = bytes(source);\r\n\t    if (tempEmptyStringTest.length == 0) {\r\n\t        return 0x0;\r\n\t    }\r\n\r\n\t    assembly {\r\n\t        result := mload(add(source, 32))\r\n\t    }\r\n\t}\r\n\t\r\n\t// function users(string memory uname, string memory uemail, string memory ucontactNumber) public {\r\n //        // Admin is the first user of the system at index 1\r\n //        bytes32 name = stringToBytes32(uname);\r\n //        bytes32 email = stringToBytes32(uemail);\r\n //        bytes32 contactNumber = stringToBytes32(ucontactNumber);\r\n //        userslist[++userCount] = User(admin, name, email, contactNumber, admin_license, userType.Admin);\r\n //        userMap[admin] = userCount;\r\n //    }\r\n\r\n\tfunction addUser(address account,string memory uname,string memory uemail,string memory ucontactNumber, string memory ulicenseid, userType utype) public onlyAdmin{\r\n        bytes32 name = stringToBytes32(uname);\r\n        bytes32 email = stringToBytes32(uemail);\r\n        bytes32 contactNumber = stringToBytes32(ucontactNumber);\r\n        bytes32 licenseid = stringToBytes32(ulicenseid);\r\n        userslist[++userCount] = User(account, name, email, contactNumber, licenseid, utype);\r\n        userMap[account] = userCount;\r\n\t}\r\n\r\n}\r\n\r\n",
  "sourcePath": "C:/MedChain/contracts/UserInfo.sol",
  "compiler": {
    "name": "solc",
    "version": "0.5.0+commit.1d4f565a.Emscripten.clang"
  },
  "schemaVersion": "3.0.6",
  "updatedAt": "2019-03-30T16:28:53.277Z",
  "devdoc": {
    "methods": {}
  },
  "userdoc": {
    "methods": {}
  }
}