{
  "contractName": "UserInfo",
  "abi": [
    {
      "constant": true,
      "inputs": [],
      "name": "userCount",
      "outputs": [
        {
          "name": "",
          "type": "uint256"
        }
      ],
      "payable": false,
      "stateMutability": "view",
      "type": "function",
      "signature": "0x07973ccf"
    },
    {
      "constant": true,
      "inputs": [
        {
          "name": "",
          "type": "address"
        }
      ],
      "name": "userMap",
      "outputs": [
        {
          "name": "",
          "type": "uint256"
        }
      ],
      "payable": false,
      "stateMutability": "view",
      "type": "function",
      "signature": "0x2bcc23f8"
    },
    {
      "constant": true,
      "inputs": [
        {
          "name": "",
          "type": "uint256"
        }
      ],
      "name": "userslist",
      "outputs": [
        {
          "name": "accountId",
          "type": "address"
        },
        {
          "name": "name",
          "type": "bytes32"
        },
        {
          "name": "email",
          "type": "bytes32"
        },
        {
          "name": "contactNumber",
          "type": "bytes32"
        },
        {
          "name": "licenseid",
          "type": "bytes32"
        },
        {
          "name": "utype",
          "type": "uint8"
        }
      ],
      "payable": false,
      "stateMutability": "view",
      "type": "function",
      "signature": "0x9e1ae6b5"
    },
    {
      "inputs": [],
      "payable": false,
      "stateMutability": "nonpayable",
      "type": "constructor",
      "signature": "constructor"
    },
    {
      "constant": false,
      "inputs": [
        {
          "name": "name",
          "type": "bytes32"
        },
        {
          "name": "email",
          "type": "bytes32"
        },
        {
          "name": "contactNumber",
          "type": "bytes32"
        }
      ],
      "name": "users",
      "outputs": [],
      "payable": false,
      "stateMutability": "nonpayable",
      "type": "function",
      "signature": "0xdfb58adb"
    },
    {
      "constant": false,
      "inputs": [
        {
          "name": "account",
          "type": "address"
        },
        {
          "name": "name",
          "type": "bytes32"
        },
        {
          "name": "email",
          "type": "bytes32"
        },
        {
          "name": "contactNumber",
          "type": "bytes32"
        },
        {
          "name": "licenseid",
          "type": "bytes32"
        },
        {
          "name": "utype",
          "type": "uint8"
        }
      ],
      "name": "addUser",
      "outputs": [],
      "payable": false,
      "stateMutability": "nonpayable",
      "type": "function",
      "signature": "0xca5cf232"
    }
  ],
  "bytecode": "0x608060405234801561001057600080fd5b5033600160006101000a81548173ffffffffffffffffffffffffffffffffffffffff021916908373ffffffffffffffffffffffffffffffffffffffff1602179055507f2000000000000000000000000000000000000000000000000000000000000000600281905550610686806100886000396000f3fe60806040526004361061006d576000357c0100000000000000000000000000000000000000000000000000000000900463ffffffff16806307973ccf146100725780632bcc23f81461009d5780639e1ae6b514610102578063ca5cf232146101ae578063dfb58adb14610234575b600080fd5b34801561007e57600080fd5b50610087610283565b6040518082815260200191505060405180910390f35b3480156100a957600080fd5b506100ec600480360360208110156100c057600080fd5b81019080803573ffffffffffffffffffffffffffffffffffffffff169060200190929190505050610289565b6040518082815260200191505060405180910390f35b34801561010e57600080fd5b5061013b6004803603602081101561012557600080fd5b81019080803590602001909291905050506102a1565b604051808773ffffffffffffffffffffffffffffffffffffffff1673ffffffffffffffffffffffffffffffffffffffff16815260200186815260200185815260200184815260200183815260200182600481111561019557fe5b60ff168152602001965050505050505060405180910390f35b3480156101ba57600080fd5b50610232600480360360c08110156101d157600080fd5b81019080803573ffffffffffffffffffffffffffffffffffffffff16906020019092919080359060200190929190803590602001909291908035906020019092919080359060200190929190803560ff16906020019092919050505061030a565b005b34801561024057600080fd5b506102816004803603606081101561025757600080fd5b810190808035906020019092919080359060200190929190803590602001909291905050506104be565b005b60005481565b60046020528060005260406000206000915090505481565b60036020528060005260406000206000915090508060000160009054906101000a900473ffffffffffffffffffffffffffffffffffffffff16908060010154908060020154908060030154908060040154908060050160009054906101000a900460ff16905086565b600160009054906101000a900473ffffffffffffffffffffffffffffffffffffffff1673ffffffffffffffffffffffffffffffffffffffff163373ffffffffffffffffffffffffffffffffffffffff1614151561036657600080fd5b60c0604051908101604052808773ffffffffffffffffffffffffffffffffffffffff1681526020018681526020018581526020018481526020018381526020018260048111156103b257fe5b815250600360008060008154600101919050819055815260200190815260200160002060008201518160000160006101000a81548173ffffffffffffffffffffffffffffffffffffffff021916908373ffffffffffffffffffffffffffffffffffffffff1602179055506020820151816001015560408201518160020155606082015181600301556080820151816004015560a08201518160050160006101000a81548160ff0219169083600481111561046857fe5b0217905550905050600054600460008873ffffffffffffffffffffffffffffffffffffffff1673ffffffffffffffffffffffffffffffffffffffff16815260200190815260200160002081905550505050505050565b60c060405190810160405280600160009054906101000a900473ffffffffffffffffffffffffffffffffffffffff1673ffffffffffffffffffffffffffffffffffffffff16815260200184815260200183815260200182815260200160025481526020016003600481111561052f57fe5b815250600360008060008154600101919050819055815260200190815260200160002060008201518160000160006101000a81548173ffffffffffffffffffffffffffffffffffffffff021916908373ffffffffffffffffffffffffffffffffffffffff1602179055506020820151816001015560408201518160020155606082015181600301556080820151816004015560a08201518160050160006101000a81548160ff021916908360048111156105e557fe5b021790555090505060005460046000600160009054906101000a900473ffffffffffffffffffffffffffffffffffffffff1673ffffffffffffffffffffffffffffffffffffffff1673ffffffffffffffffffffffffffffffffffffffff1681526020019081526020016000208190555050505056fea165627a7a72305820a290be0b0b567dc768a7ad7908fe33588f4fd751235df98f8a521e22db28a61f0029",
  "source": "pragma solidity ^0.5.0;\r\n\r\ncontract UserInfo {\r\n\r\n\tenum userType{\r\n\t\tManufacturer,\r\n\t\tWholeSale_Dealer,\r\n\t\tPharmasists,\r\n\t\tAdmin,\r\n\t\tTransporter\r\n\t}\r\n\t//Model an order\r\n\tstruct User {\r\n\t\taddress accountId;\r\n\t\tbytes32 name;\r\n\t\tbytes32 email;\r\n\t\tbytes32 contactNumber;\r\n\t\tbytes32 licenseid;\r\n\t\tuserType utype;\r\n\t}\r\n\r\n\t//storing number of users\r\n\tuint public userCount;\r\n\taddress admin;\r\n\tbytes32 admin_license;\r\n\t\r\n\t//Store the users in the system\r\n\tmapping(uint=> User ) public userslist;\r\n\t//map for userindex to account address\r\n\tmapping(address=>uint) public userMap;\r\n\r\n\tconstructor() public {\r\n\t\tadmin = msg.sender;\r\n\t\tadmin_license = \" \";\r\n\t}\r\n\r\n\tmodifier onlyAdmin{ \r\n\t\trequire (msg.sender == admin); \r\n\t\t_; \r\n\t}\r\n\t\r\n\tfunction users(bytes32 name, bytes32 email, bytes32 contactNumber) public {\r\n        // Admin is the first user of the system at index 1\r\n        userslist[++userCount] = User(admin, name, email, contactNumber, admin_license, userType.Admin);\r\n        userMap[admin] = userCount;\r\n    }\r\n\r\n\tfunction addUser(address account,bytes32 name,bytes32 email,bytes32 contactNumber, bytes32 licenseid, userType utype) public onlyAdmin{\r\n        userslist[++userCount] = User(account, name, email, contactNumber, licenseid, utype);\r\n        userMap[account] = userCount;\r\n\t}\r\n\r\n}\r\n\r\n",
  "sourcePath": "C:/MedChain/contracts/UserInfo.sol",
  "compiler": {
    "name": "solc",
    "version": "0.5.0+commit.1d4f565a.Emscripten.clang"
  },
  "schemaVersion": "3.0.6",
  "updatedAt": "2019-03-30T09:09:24.447Z",
  "devdoc": {
    "methods": {}
  },
  "userdoc": {
    "methods": {}
  }
}